{
    "contractName": "SimpleWallet",
    "abi": [
        {
            "inputs": [],
            "stateMutability": "nonpayable",
            "type": "constructor"
        },
        {
            "inputs": [],
            "name": "getContractBalance",
            "outputs": [
                {
                    "internalType": "uint256",
                    "name": "",
                    "type": "uint256"
                }
            ],
            "stateMutability": "view",
            "type": "function"
        },
        {
            "inputs": [],
            "name": "getOwnerBalance",
            "outputs": [
                {
                    "internalType": "uint256",
                    "name": "",
                    "type": "uint256"
                }
            ],
            "stateMutability": "view",
            "type": "function"
        },
        {
            "inputs": [],
            "name": "owner",
            "outputs": [
                {
                    "internalType": "address payable",
                    "name": "",
                    "type": "address"
                }
            ],
            "stateMutability": "view",
            "type": "function"
        },
        {
            "inputs": [
                {
                    "internalType": "uint256",
                    "name": "_amount",
                    "type": "uint256"
                }
            ],
            "name": "withdraw",
            "outputs": [],
            "stateMutability": "nonpayable",
            "type": "function"
        },
        {
            "stateMutability": "payable",
            "type": "receive"
        }
    ],
    "bytecode": "608060405234801561001057600080fd5b50600080546001600160a01b03191633179055610231806100326000396000f3fe6080604052600436106100435760003560e01c80632e1a7d4d1461004f578063590791f2146100715780636f9fb98a1461009f5780638da5cb5b146100b257600080fd5b3661004a57005b600080fd5b34801561005b57600080fd5b5061006f61006a3660046101e2565b6100ea565b005b34801561007d57600080fd5b506000546001600160a01b0316315b6040519081526020015b60405180910390f35b3480156100ab57600080fd5b504761008c565b3480156100be57600080fd5b506000546100d2906001600160a01b031681565b6040516001600160a01b039091168152602001610096565b6000546001600160a01b031633146101555760405162461bcd60e51b8152602060048201526024808201527f536f6d656e7465206f2070726f70726965746172696f2074656d207065726d696044820152637373616f60e01b60648201526084015b60405180910390fd5b478111156101a55760405162461bcd60e51b815260206004820152601e60248201527f53616c646f20696e737566696369656e7465206e6f20636f6e747261746f0000604482015260640161014c565b600080546040516001600160a01b039091169183156108fc02918491818181858888f193505050501580156101de573d6000803e3d6000fd5b5050565b6000602082840312156101f457600080fd5b503591905056fea26469706673582212208b962239754d4c3239e949f60036833d534b092b7fc85a5d8c0d1a0158ed3f0f64736f6c63430008130033",
    "sourcePath": "c:/Users/felly/OneDrive/Área de Trabalho/SmartContracts/exemplo/exemplo.sol",
    "compiler": {
        "name": "solc",
        "version": "0.8.19+commit.7dd6d404"
    },
    "functionHashes": {
        "getContractBalance()": "6f9fb98a",
        "getOwnerBalance()": "590791f2",
        "owner()": "8da5cb5b",
        "withdraw(uint256)": "2e1a7d4d"
    },
    "gasEstimates": {
        "creation": {
            "codeDepositCost": "112200",
            "executionCost": "24394",
            "totalCost": "136594"
        },
        "external": {
            "getContractBalance()": "205",
            "getOwnerBalance()": "4888",
            "owner()": "2381",
            "withdraw(uint256)": "infinite"
        }
    }
}